{"abi":[{"type":"constructor","inputs":[{"name":"_dpf","type":"address","internalType":"address"},{"name":"_usdc","type":"address","internalType":"address"},{"name":"_issuer","type":"address","internalType":"address"},{"name":"_offering","type":"address","internalType":"address"}],"stateMutability":"nonpayable"},{"type":"function","name":"DPF","inputs":[],"outputs":[{"name":"","type":"address","internalType":"contract IERC20"}],"stateMutability":"view"},{"type":"function","name":"ISSUER","inputs":[],"outputs":[{"name":"","type":"address","internalType":"address"}],"stateMutability":"view"},{"type":"function","name":"OFFERING","inputs":[],"outputs":[{"name":"","type":"address","internalType":"address"}],"stateMutability":"view"},{"type":"function","name":"USDC","inputs":[],"outputs":[{"name":"","type":"address","internalType":"contract IERC20"}],"stateMutability":"view"},{"type":"function","name":"claim","inputs":[],"outputs":[],"stateMutability":"nonpayable"},{"type":"function","name":"claimedPerToken","inputs":[{"name":"","type":"address","internalType":"address"}],"outputs":[{"name":"","type":"uint256","internalType":"uint256"}],"stateMutability":"view"},{"type":"function","name":"distribute","inputs":[{"name":"usdcAmount","type":"uint256","internalType":"uint256"}],"outputs":[],"stateMutability":"nonpayable"},{"type":"function","name":"dividendPerToken","inputs":[],"outputs":[{"name":"","type":"uint256","internalType":"uint256"}],"stateMutability":"view"},{"type":"function","name":"pending","inputs":[{"name":"holder","type":"address","internalType":"address"}],"outputs":[{"name":"","type":"uint256","internalType":"uint256"}],"stateMutability":"view"},{"type":"event","name":"Claimed","inputs":[{"name":"holder","type":"address","indexed":true,"internalType":"address"},{"name":"amount","type":"uint256","indexed":true,"internalType":"uint256"}],"anonymous":false},{"type":"event","name":"Distributed","inputs":[{"name":"usdcAmount","type":"uint256","indexed":true,"internalType":"uint256"},{"name":"dividendPerToken","type":"uint256","indexed":true,"internalType":"uint256"}],"anonymous":false},{"type":"error","name":"Dividends__AmountIsZero","inputs":[]},{"type":"error","name":"Dividends__NoSupply","inputs":[]},{"type":"error","name":"Dividends__NotIssuer","inputs":[]},{"type":"error","name":"Dividends__NothingToClaim","inputs":[]},{"type":"error","name":"Dividends__OfferingNotFinalized","inputs":[]},{"type":"error","name":"SafeERC20FailedOperation","inputs":[{"name":"token","type":"address","internalType":"address"}]}],"bytecode":{"object":"0x61010060405234801562000011575f80fd5b5060405162000f2938038062000f29833981810160405281019062000037919062000176565b8373ffffffffffffffffffffffffffffffffffffffff1660808173ffffffffffffffffffffffffffffffffffffffff16815250508273ffffffffffffffffffffffffffffffffffffffff1660a08173ffffffffffffffffffffffffffffffffffffffff16815250508173ffffffffffffffffffffffffffffffffffffffff1660c08173ffffffffffffffffffffffffffffffffffffffff16815250508073ffffffffffffffffffffffffffffffffffffffff1660e08173ffffffffffffffffffffffffffffffffffffffff168152505050505050620001e5565b5f80fd5b5f73ffffffffffffffffffffffffffffffffffffffff82169050919050565b5f620001408262000115565b9050919050565b620001528162000134565b81146200015d575f80fd5b50565b5f81519050620001708162000147565b92915050565b5f805f806080858703121562000191576200019062000111565b5b5f620001a08782880162000160565b9450506020620001b38782880162000160565b9350506040620001c68782880162000160565b9250506060620001d98782880162000160565b91505092959194509250565b60805160a05160c05160e051610cdf6200024a5f395f81816101c80152818161054501526105d201525f81816101ec015261048701525f81816102e50152818161043f015261076601525f81816103860152818161046301526106980152610cdf5ff3fe608060405234801561000f575f80fd5b5060043610610091575f3560e01c80635eebea20116100645780635eebea201461010b57806377ec0feb1461013b57806389a30271146101595780638d88f0401461017757806391c05b0b1461019557610091565b806302d845011461009557806338ff2cbd146100c55780634339b421146100e35780634e71d92d14610101575b5f80fd5b6100af60048036038101906100aa91906109ec565b6101b1565b6040516100bc9190610a2f565b60405180910390f35b6100cd6101c6565b6040516100da9190610a57565b60405180910390f35b6100eb6101ea565b6040516100f89190610a57565b60405180910390f35b61010961020e565b005b610125600480360381019061012091906109ec565b61032c565b6040516101329190610a2f565b60405180910390f35b610143610438565b6040516101509190610a2f565b60405180910390f35b61016161043d565b60405161016e9190610acb565b60405180910390f35b61017f610461565b60405161018c9190610acb565b60405180910390f35b6101af60048036038101906101aa9190610b0e565b610485565b005b6001602052805f5260405f205f915090505481565b7f000000000000000000000000000000000000000000000000000000000000000081565b7f000000000000000000000000000000000000000000000000000000000000000081565b5f6102183361032c565b9050620186a0811015610257576040517f6be512e800000000000000000000000000000000000000000000000000000000815260040160405180910390fd5b5f5460015f3373ffffffffffffffffffffffffffffffffffffffff1673ffffffffffffffffffffffffffffffffffffffff1681526020019081526020015f2081905550803373ffffffffffffffffffffffffffffffffffffffff167fd8138f8a3f377c5259ca548e70e4c2de94f129f5a11036a15b69513cba2b426a60405160405180910390a361032933827f000000000000000000000000000000000000000000000000000000000000000073ffffffffffffffffffffffffffffffffffffffff166108139092919063ffffffff16565b50565b5f8060015f8473ffffffffffffffffffffffffffffffffffffffff1673ffffffffffffffffffffffffffffffffffffffff1681526020019081526020015f20545f546103789190610b66565b9050670de0b6b3a7640000817f000000000000000000000000000000000000000000000000000000000000000073ffffffffffffffffffffffffffffffffffffffff166370a08231866040518263ffffffff1660e01b81526004016103dd9190610a57565b602060405180830381865afa1580156103f8573d5f803e3d5ffd5b505050506040513d601f19601f8201168201806040525081019061041c9190610bad565b6104269190610bd8565b6104309190610c46565b915050919050565b5f5481565b7f000000000000000000000000000000000000000000000000000000000000000081565b7f000000000000000000000000000000000000000000000000000000000000000081565b7f000000000000000000000000000000000000000000000000000000000000000073ffffffffffffffffffffffffffffffffffffffff163373ffffffffffffffffffffffffffffffffffffffff161461050a576040517f06adde5800000000000000000000000000000000000000000000000000000000815260040160405180910390fd5b5f8103610543576040517fed15882200000000000000000000000000000000000000000000000000000000815260040160405180910390fd5b7f000000000000000000000000000000000000000000000000000000000000000073ffffffffffffffffffffffffffffffffffffffff1663b652dc2f6040518163ffffffff1660e01b8152600401602060405180830381865afa1580156105ac573d5f803e3d5ffd5b505050506040513d601f19601f820116820180604052508101906105d09190610bad565b7f000000000000000000000000000000000000000000000000000000000000000073ffffffffffffffffffffffffffffffffffffffff1663c5c4744c6040518163ffffffff1660e01b8152600401602060405180830381865afa158015610639573d5f803e3d5ffd5b505050506040513d601f19601f8201168201806040525081019061065d9190610bad565b1015610695576040517f02dfe0b500000000000000000000000000000000000000000000000000000000815260040160405180910390fd5b5f7f000000000000000000000000000000000000000000000000000000000000000073ffffffffffffffffffffffffffffffffffffffff166318160ddd6040518163ffffffff1660e01b8152600401602060405180830381865afa1580156106ff573d5f803e3d5ffd5b505050506040513d601f19601f820116820180604052508101906107239190610bad565b90505f810361075e576040517fb4d1e46300000000000000000000000000000000000000000000000000000000815260040160405180910390fd5b6107ab3330847f000000000000000000000000000000000000000000000000000000000000000073ffffffffffffffffffffffffffffffffffffffff16610866909392919063ffffffff16565b80670de0b6b3a7640000836107c09190610bd8565b6107ca9190610c46565b5f808282546107d99190610c76565b925050819055505f54827f97791d3ac1343e05805a2f905fa80b249c2ca58cf9fef455d4fa7ec13ce5832160405160405180910390a35050565b61082083838360016108bb565b61086157826040517f5274afe70000000000000000000000000000000000000000000000000000000081526004016108589190610a57565b60405180910390fd5b505050565b61087484848484600161091d565b6108b557836040517f5274afe70000000000000000000000000000000000000000000000000000000081526004016108ac9190610a57565b60405180910390fd5b50505050565b5f8063a9059cbb60e01b9050604051815f525f1960601c86166004528460245260205f60445f808b5af1925060015f5114831661090f578383151615610903573d5f823e3d81fd5b5f873b113d1516831692505b806040525050949350505050565b5f806323b872dd60e01b9050604051815f525f1960601c87166004525f1960601c86166024528460445260205f60645f808c5af1925060015f5114831661097b57838315161561096f573d5f823e3d81fd5b5f883b113d1516831692505b806040525f606052505095945050505050565b5f80fd5b5f73ffffffffffffffffffffffffffffffffffffffff82169050919050565b5f6109bb82610992565b9050919050565b6109cb816109b1565b81146109d5575f80fd5b50565b5f813590506109e6816109c2565b92915050565b5f60208284031215610a0157610a0061098e565b5b5f610a0e848285016109d8565b91505092915050565b5f819050919050565b610a2981610a17565b82525050565b5f602082019050610a425f830184610a20565b92915050565b610a51816109b1565b82525050565b5f602082019050610a6a5f830184610a48565b92915050565b5f819050919050565b5f610a93610a8e610a8984610992565b610a70565b610992565b9050919050565b5f610aa482610a79565b9050919050565b5f610ab582610a9a565b9050919050565b610ac581610aab565b82525050565b5f602082019050610ade5f830184610abc565b92915050565b610aed81610a17565b8114610af7575f80fd5b50565b5f81359050610b0881610ae4565b92915050565b5f60208284031215610b2357610b2261098e565b5b5f610b3084828501610afa565b91505092915050565b7f4e487b71000000000000000000000000000000000000000000000000000000005f52601160045260245ffd5b5f610b7082610a17565b9150610b7b83610a17565b9250828203905081811115610b9357610b92610b39565b5b92915050565b5f81519050610ba781610ae4565b92915050565b5f60208284031215610bc257610bc161098e565b5b5f610bcf84828501610b99565b91505092915050565b5f610be282610a17565b9150610bed83610a17565b9250828202610bfb81610a17565b91508282048414831517610c1257610c11610b39565b5b5092915050565b7f4e487b71000000000000000000000000000000000000000000000000000000005f52601260045260245ffd5b5f610c5082610a17565b9150610c5b83610a17565b925082610c6b57610c6a610c19565b5b828204905092915050565b5f610c8082610a17565b9150610c8b83610a17565b9250828201905080821115610ca357610ca2610b39565b5b9291505056fea26469706673582212208e2667cc5f59ad6dcc93e62d869bcc53033bb49348dae2bcecfbf9d04f26a20d64736f6c63430008180033","linkReferences":{}},"methodIdentifiers":{"DPF()":"8d88f040","ISSUER()":"4339b421","OFFERING()":"38ff2cbd","USDC()":"89a30271","claim()":"4e71d92d","claimedPerToken(address)":"02d84501","distribute(uint256)":"91c05b0b","dividendPerToken()":"77ec0feb","pending(address)":"5eebea20"},"id":34}