{"abi":[{"type":"constructor","inputs":[{"name":"_dpf","type":"address","internalType":"address"},{"name":"_usdc","type":"address","internalType":"address"},{"name":"_issuer","type":"address","internalType":"address"},{"name":"_offering","type":"address","internalType":"address"}],"stateMutability":"nonpayable"},{"type":"function","name":"DPF","inputs":[],"outputs":[{"name":"","type":"address","internalType":"contract IERC20"}],"stateMutability":"view"},{"type":"function","name":"DPF_TOKEN","inputs":[],"outputs":[{"name":"","type":"address","internalType":"address"}],"stateMutability":"view"},{"type":"function","name":"ISSUER","inputs":[],"outputs":[{"name":"","type":"address","internalType":"address"}],"stateMutability":"view"},{"type":"function","name":"OFFERING","inputs":[],"outputs":[{"name":"","type":"address","internalType":"address"}],"stateMutability":"view"},{"type":"function","name":"USDC","inputs":[],"outputs":[{"name":"","type":"address","internalType":"contract IERC20"}],"stateMutability":"view"},{"type":"function","name":"claim","inputs":[],"outputs":[],"stateMutability":"nonpayable"},{"type":"function","name":"claimable","inputs":[{"name":"holder","type":"address","internalType":"address"}],"outputs":[{"name":"","type":"uint256","internalType":"uint256"}],"stateMutability":"view"},{"type":"function","name":"claimedPerToken","inputs":[{"name":"","type":"address","internalType":"address"}],"outputs":[{"name":"","type":"uint256","internalType":"uint256"}],"stateMutability":"view"},{"type":"function","name":"distribute","inputs":[{"name":"usdcAmount","type":"uint256","internalType":"uint256"}],"outputs":[],"stateMutability":"nonpayable"},{"type":"function","name":"dividendPerToken","inputs":[],"outputs":[{"name":"","type":"uint256","internalType":"uint256"}],"stateMutability":"view"},{"type":"function","name":"pending","inputs":[{"name":"holder","type":"address","internalType":"address"}],"outputs":[{"name":"","type":"uint256","internalType":"uint256"}],"stateMutability":"view"},{"type":"function","name":"settle","inputs":[{"name":"holder","type":"address","internalType":"address"}],"outputs":[],"stateMutability":"nonpayable"},{"type":"function","name":"withdrawable","inputs":[{"name":"","type":"address","internalType":"address"}],"outputs":[{"name":"","type":"uint256","internalType":"uint256"}],"stateMutability":"view"},{"type":"event","name":"Claimed","inputs":[{"name":"holder","type":"address","indexed":true,"internalType":"address"},{"name":"amount","type":"uint256","indexed":true,"internalType":"uint256"}],"anonymous":false},{"type":"event","name":"Distributed","inputs":[{"name":"usdcAmount","type":"uint256","indexed":true,"internalType":"uint256"},{"name":"dividendPerToken","type":"uint256","indexed":true,"internalType":"uint256"}],"anonymous":false},{"type":"event","name":"Settled","inputs":[{"name":"holder","type":"address","indexed":true,"internalType":"address"},{"name":"amount","type":"uint256","indexed":true,"internalType":"uint256"}],"anonymous":false},{"type":"error","name":"Dividends__AmountIsZero","inputs":[]},{"type":"error","name":"Dividends__NoSupply","inputs":[]},{"type":"error","name":"Dividends__NotDpfToken","inputs":[]},{"type":"error","name":"Dividends__NotIssuer","inputs":[]},{"type":"error","name":"Dividends__NothingToClaim","inputs":[]},{"type":"error","name":"Dividends__OfferingNotFinalized","inputs":[]},{"type":"error","name":"SafeERC20FailedOperation","inputs":[{"name":"token","type":"address","internalType":"address"}]}],"bytecode":{"object":"0x61012060405234801562000011575f80fd5b5060405162001317380380620013178339818101604052810190620000379190620001ab565b8373ffffffffffffffffffffffffffffffffffffffff1660808173ffffffffffffffffffffffffffffffffffffffff16815250508273ffffffffffffffffffffffffffffffffffffffff1660a08173ffffffffffffffffffffffffffffffffffffffff16815250508173ffffffffffffffffffffffffffffffffffffffff1660c08173ffffffffffffffffffffffffffffffffffffffff16815250508073ffffffffffffffffffffffffffffffffffffffff1660e08173ffffffffffffffffffffffffffffffffffffffff16815250508373ffffffffffffffffffffffffffffffffffffffff166101008173ffffffffffffffffffffffffffffffffffffffff1681525050505050506200021a565b5f80fd5b5f73ffffffffffffffffffffffffffffffffffffffff82169050919050565b5f62000175826200014a565b9050919050565b620001878162000169565b811462000192575f80fd5b50565b5f81519050620001a5816200017c565b92915050565b5f805f8060808587031215620001c657620001c562000146565b5b5f620001d58782880162000195565b9450506020620001e88782880162000195565b9350506040620001fb8782880162000195565b92505060606200020e8782880162000195565b91505092959194509250565b60805160a05160c05160e05161010051611087620002905f395f818161033f015261061c01525f818161029e015281816108d8015261096501525f818161031b015261081a01525f81816104c6015281816107d20152610af901525f8181610568015281816107f60152610a2b01526110875ff3fe608060405234801561000f575f80fd5b50600436106100cd575f3560e01c80635eebea201161008a57806389a302711161006457806389a30271146101ff5780638d88f0401461021d57806391c05b0b1461023b578063ce513b6f14610257576100cd565b80635eebea20146101955780636a256b29146101c557806377ec0feb146101e1576100cd565b806302d84501146100d157806338ff2cbd14610101578063402914f51461011f5780634339b4211461014f57806347b2b5ca1461016d5780634e71d92d1461018b575b5f80fd5b6100eb60048036038101906100e69190610d94565b610287565b6040516100f89190610dd7565b60405180910390f35b61010961029c565b6040516101169190610dff565b60405180910390f35b61013960048036038101906101349190610d94565b6102c0565b6040516101469190610dd7565b60405180910390f35b610157610319565b6040516101649190610dff565b60405180910390f35b61017561033d565b6040516101829190610dff565b60405180910390f35b610193610361565b005b6101af60048036038101906101aa9190610d94565b61050e565b6040516101bc9190610dd7565b60405180910390f35b6101df60048036038101906101da9190610d94565b61061a565b005b6101e96107cb565b6040516101f69190610dd7565b60405180910390f35b6102076107d0565b6040516102149190610e73565b60405180910390f35b6102256107f4565b6040516102329190610e73565b60405180910390f35b61025560048036038101906102509190610eb6565b610818565b005b610271600480360381019061026c9190610d94565b610ba6565b60405161027e9190610dd7565b60405180910390f35b6001602052805f5260405f205f915090505481565b7f000000000000000000000000000000000000000000000000000000000000000081565b5f6102ca8261050e565b60025f8473ffffffffffffffffffffffffffffffffffffffff1673ffffffffffffffffffffffffffffffffffffffff1681526020019081526020015f20546103129190610f0e565b9050919050565b7f000000000000000000000000000000000000000000000000000000000000000081565b7f000000000000000000000000000000000000000000000000000000000000000081565b5f61036b3361050e565b90505f5460015f3373ffffffffffffffffffffffffffffffffffffffff1673ffffffffffffffffffffffffffffffffffffffff1681526020019081526020015f20819055505f8160025f3373ffffffffffffffffffffffffffffffffffffffff1673ffffffffffffffffffffffffffffffffffffffff1681526020019081526020015f20546103fa9190610f0e565b9050620186a0811015610439576040517f6be512e800000000000000000000000000000000000000000000000000000000815260040160405180910390fd5b5f60025f3373ffffffffffffffffffffffffffffffffffffffff1673ffffffffffffffffffffffffffffffffffffffff1681526020019081526020015f2081905550803373ffffffffffffffffffffffffffffffffffffffff167fd8138f8a3f377c5259ca548e70e4c2de94f129f5a11036a15b69513cba2b426a60405160405180910390a361050a33827f000000000000000000000000000000000000000000000000000000000000000073ffffffffffffffffffffffffffffffffffffffff16610bbb9092919063ffffffff16565b5050565b5f8060015f8473ffffffffffffffffffffffffffffffffffffffff1673ffffffffffffffffffffffffffffffffffffffff1681526020019081526020015f20545f5461055a9190610f41565b9050670de0b6b3a7640000817f000000000000000000000000000000000000000000000000000000000000000073ffffffffffffffffffffffffffffffffffffffff166370a08231866040518263ffffffff1660e01b81526004016105bf9190610dff565b602060405180830381865afa1580156105da573d5f803e3d5ffd5b505050506040513d601f19601f820116820180604052508101906105fe9190610f88565b6106089190610fb3565b6106129190611021565b915050919050565b7f000000000000000000000000000000000000000000000000000000000000000073ffffffffffffffffffffffffffffffffffffffff163373ffffffffffffffffffffffffffffffffffffffff161461069f576040517f838f347500000000000000000000000000000000000000000000000000000000815260040160405180910390fd5b5f73ffffffffffffffffffffffffffffffffffffffff168173ffffffffffffffffffffffffffffffffffffffff1603156107c8575f6106dd8261050e565b90505f5460015f8473ffffffffffffffffffffffffffffffffffffffff1673ffffffffffffffffffffffffffffffffffffffff1681526020019081526020015f20819055505f810361072f57506107c8565b8060025f8473ffffffffffffffffffffffffffffffffffffffff1673ffffffffffffffffffffffffffffffffffffffff1681526020019081526020015f205f82825461077b9190610f0e565b92505081905550808273ffffffffffffffffffffffffffffffffffffffff167f7823e479a1a4ebe2418874847436f8a1680c5ee5b17f38bb59dbff28e1b4555260405160405180910390a3505b50565b5f5481565b7f000000000000000000000000000000000000000000000000000000000000000081565b7f000000000000000000000000000000000000000000000000000000000000000081565b7f000000000000000000000000000000000000000000000000000000000000000073ffffffffffffffffffffffffffffffffffffffff163373ffffffffffffffffffffffffffffffffffffffff161461089d576040517f06adde5800000000000000000000000000000000000000000000000000000000815260040160405180910390fd5b5f81036108d6576040517fed15882200000000000000000000000000000000000000000000000000000000815260040160405180910390fd5b7f000000000000000000000000000000000000000000000000000000000000000073ffffffffffffffffffffffffffffffffffffffff1663b652dc2f6040518163ffffffff1660e01b8152600401602060405180830381865afa15801561093f573d5f803e3d5ffd5b505050506040513d601f19601f820116820180604052508101906109639190610f88565b7f000000000000000000000000000000000000000000000000000000000000000073ffffffffffffffffffffffffffffffffffffffff1663c5c4744c6040518163ffffffff1660e01b8152600401602060405180830381865afa1580156109cc573d5f803e3d5ffd5b505050506040513d601f19601f820116820180604052508101906109f09190610f88565b1015610a28576040517f02dfe0b500000000000000000000000000000000000000000000000000000000815260040160405180910390fd5b5f7f000000000000000000000000000000000000000000000000000000000000000073ffffffffffffffffffffffffffffffffffffffff166318160ddd6040518163ffffffff1660e01b8152600401602060405180830381865afa158015610a92573d5f803e3d5ffd5b505050506040513d601f19601f82011682018060405250810190610ab69190610f88565b90505f8103610af1576040517fb4d1e46300000000000000000000000000000000000000000000000000000000815260040160405180910390fd5b610b3e3330847f000000000000000000000000000000000000000000000000000000000000000073ffffffffffffffffffffffffffffffffffffffff16610c0e909392919063ffffffff16565b80670de0b6b3a764000083610b539190610fb3565b610b5d9190611021565b5f80828254610b6c9190610f0e565b925050819055505f54827f97791d3ac1343e05805a2f905fa80b249c2ca58cf9fef455d4fa7ec13ce5832160405160405180910390a35050565b6002602052805f5260405f205f915090505481565b610bc88383836001610c63565b610c0957826040517f5274afe7000000000000000000000000000000000000000000000000000000008152600401610c009190610dff565b60405180910390fd5b505050565b610c1c848484846001610cc5565b610c5d57836040517f5274afe7000000000000000000000000000000000000000000000000000000008152600401610c549190610dff565b60405180910390fd5b50505050565b5f8063a9059cbb60e01b9050604051815f525f1960601c86166004528460245260205f60445f808b5af1925060015f51148316610cb7578383151615610cab573d5f823e3d81fd5b5f873b113d1516831692505b806040525050949350505050565b5f806323b872dd60e01b9050604051815f525f1960601c87166004525f1960601c86166024528460445260205f60645f808c5af1925060015f51148316610d23578383151615610d17573d5f823e3d81fd5b5f883b113d1516831692505b806040525f606052505095945050505050565b5f80fd5b5f73ffffffffffffffffffffffffffffffffffffffff82169050919050565b5f610d6382610d3a565b9050919050565b610d7381610d59565b8114610d7d575f80fd5b50565b5f81359050610d8e81610d6a565b92915050565b5f60208284031215610da957610da8610d36565b5b5f610db684828501610d80565b91505092915050565b5f819050919050565b610dd181610dbf565b82525050565b5f602082019050610dea5f830184610dc8565b92915050565b610df981610d59565b82525050565b5f602082019050610e125f830184610df0565b92915050565b5f819050919050565b5f610e3b610e36610e3184610d3a565b610e18565b610d3a565b9050919050565b5f610e4c82610e21565b9050919050565b5f610e5d82610e42565b9050919050565b610e6d81610e53565b82525050565b5f602082019050610e865f830184610e64565b92915050565b610e9581610dbf565b8114610e9f575f80fd5b50565b5f81359050610eb081610e8c565b92915050565b5f60208284031215610ecb57610eca610d36565b5b5f610ed884828501610ea2565b91505092915050565b7f4e487b71000000000000000000000000000000000000000000000000000000005f52601160045260245ffd5b5f610f1882610dbf565b9150610f2383610dbf565b9250828201905080821115610f3b57610f3a610ee1565b5b92915050565b5f610f4b82610dbf565b9150610f5683610dbf565b9250828203905081811115610f6e57610f6d610ee1565b5b92915050565b5f81519050610f8281610e8c565b92915050565b5f60208284031215610f9d57610f9c610d36565b5b5f610faa84828501610f74565b91505092915050565b5f610fbd82610dbf565b9150610fc883610dbf565b9250828202610fd681610dbf565b91508282048414831517610fed57610fec610ee1565b5b5092915050565b7f4e487b71000000000000000000000000000000000000000000000000000000005f52601260045260245ffd5b5f61102b82610dbf565b915061103683610dbf565b92508261104657611045610ff4565b5b82820490509291505056fea26469706673582212203aa6ab51b51181130754afb08b7aa3f0fc0cb5461cc5469ecbe36efc0146e35864736f6c63430008180033","linkReferences":{}},"methodIdentifiers":{"DPF()":"8d88f040","DPF_TOKEN()":"47b2b5ca","ISSUER()":"4339b421","OFFERING()":"38ff2cbd","USDC()":"89a30271","claim()":"4e71d92d","claimable(address)":"402914f5","claimedPerToken(address)":"02d84501","distribute(uint256)":"91c05b0b","dividendPerToken()":"77ec0feb","pending(address)":"5eebea20","settle(address)":"6a256b29","withdrawable(address)":"ce513b6f"},"id":34}