{"abi":[{"type":"constructor","inputs":[{"name":"_usdc","type":"address","internalType":"address"},{"name":"_dpf","type":"address","internalType":"address"},{"name":"_softCap","type":"uint256","internalType":"uint256"},{"name":"_hardCap","type":"uint256","internalType":"uint256"},{"name":"_price","type":"uint256","internalType":"uint256"},{"name":"_deadline","type":"uint256","internalType":"uint256"},{"name":"_treasury","type":"address","internalType":"address"}],"stateMutability":"nonpayable"},{"type":"function","name":"BASE_PRICE","inputs":[],"outputs":[{"name":"","type":"uint256","internalType":"uint256"}],"stateMutability":"view"},{"type":"function","name":"DEADLINE","inputs":[],"outputs":[{"name":"","type":"uint256","internalType":"uint256"}],"stateMutability":"view"},{"type":"function","name":"DPF","inputs":[],"outputs":[{"name":"","type":"address","internalType":"contract IERC20"}],"stateMutability":"view"},{"type":"function","name":"HARD_CAP","inputs":[],"outputs":[{"name":"","type":"uint256","internalType":"uint256"}],"stateMutability":"view"},{"type":"function","name":"ISSUER","inputs":[],"outputs":[{"name":"","type":"address","internalType":"address"}],"stateMutability":"view"},{"type":"function","name":"SOFT_CAP","inputs":[],"outputs":[{"name":"","type":"uint256","internalType":"uint256"}],"stateMutability":"view"},{"type":"function","name":"TREASURY","inputs":[],"outputs":[{"name":"","type":"address","internalType":"address"}],"stateMutability":"view"},{"type":"function","name":"USDC","inputs":[],"outputs":[{"name":"","type":"address","internalType":"contract IERC20"}],"stateMutability":"view"},{"type":"function","name":"contributions","inputs":[{"name":"","type":"address","internalType":"address"}],"outputs":[{"name":"","type":"uint256","internalType":"uint256"}],"stateMutability":"view"},{"type":"function","name":"currentPrice","inputs":[],"outputs":[{"name":"","type":"uint256","internalType":"uint256"}],"stateMutability":"view"},{"type":"function","name":"invest","inputs":[{"name":"usdcAmount","type":"uint256","internalType":"uint256"}],"outputs":[],"stateMutability":"nonpayable"},{"type":"function","name":"refund","inputs":[],"outputs":[],"stateMutability":"nonpayable"},{"type":"function","name":"totalRaised","inputs":[],"outputs":[{"name":"","type":"uint256","internalType":"uint256"}],"stateMutability":"view"},{"type":"function","name":"withdraw","inputs":[],"outputs":[],"stateMutability":"nonpayable"},{"type":"function","name":"withdrawn","inputs":[],"outputs":[{"name":"","type":"bool","internalType":"bool"}],"stateMutability":"view"},{"type":"error","name":"Offering__AlreadyWithdrawn","inputs":[]},{"type":"error","name":"Offering__Closed","inputs":[]},{"type":"error","name":"Offering__HardCapReached","inputs":[]},{"type":"error","name":"Offering__NotClosed","inputs":[]},{"type":"error","name":"Offering__NotIssuer","inputs":[]},{"type":"error","name":"Offering__NothingToRefund","inputs":[]},{"type":"error","name":"Offering__SoftCapNotReached","inputs":[]},{"type":"error","name":"Offering__SoftCapReached","inputs":[]},{"type":"error","name":"Offering__ZeroTokens","inputs":[]},{"type":"error","name":"SafeERC20FailedOperation","inputs":[{"name":"token","type":"address","internalType":"address"}]}],"bytecode":{"object":"0x61018060405234801562000011575f80fd5b50604051620013b8380380620013b88339818101604052810190620000379190620001d5565b8673ffffffffffffffffffffffffffffffffffffffff166101408173ffffffffffffffffffffffffffffffffffffffff16815250508573ffffffffffffffffffffffffffffffffffffffff166101608173ffffffffffffffffffffffffffffffffffffffff168152505084608081815250508360a081815250508260c081815250508160e081815250503373ffffffffffffffffffffffffffffffffffffffff166101008173ffffffffffffffffffffffffffffffffffffffff16815250508073ffffffffffffffffffffffffffffffffffffffff166101208173ffffffffffffffffffffffffffffffffffffffff16815250505050505050505062000283565b5f80fd5b5f73ffffffffffffffffffffffffffffffffffffffff82169050919050565b5f62000167826200013c565b9050919050565b62000179816200015b565b811462000184575f80fd5b50565b5f8151905062000197816200016e565b92915050565b5f819050919050565b620001b1816200019d565b8114620001bc575f80fd5b50565b5f81519050620001cf81620001a6565b92915050565b5f805f805f805f60e0888a031215620001f357620001f262000138565b5b5f620002028a828b0162000187565b9750506020620002158a828b0162000187565b9650506040620002288a828b01620001bf565b95505060606200023b8a828b01620001bf565b94505060806200024e8a828b01620001bf565b93505060a0620002618a828b01620001bf565b92505060c0620002748a828b0162000187565b91505092959891949750929550565b60805160a05160c05160e0516101005161012051610140516101605161105b6200035d5f395f81816103c101528181610701015281816107c80152610a2e01525f81816103750152818161064f015281816106ba015281816109c10152610a0a01525f8181610476015261062d01525f81816104be01528181610698015281816107a6015261082901525f818161084d0152610adb01525f8181610a7601528181610aab0152610b3a01525f81816102a30152818161049a0152610a5301525f8181610543015281816108a60152610aff015261105b5ff3fe608060405234801561000f575f80fd5b50600436106100f3575f3560e01c806389a3027111610095578063b652dc2f11610064578063b652dc2f14610229578063c5c4744c14610247578063c80ec52214610265578063f86325ed14610283576100f3565b806389a30271146101b15780638d88f040146101cf5780639d1b464a146101ed578063a082c86e1461020b576100f3565b80633ccfd60b116100d15780633ccfd60b1461014f57806342e94c90146101595780634339b42114610189578063590e1ae3146101a7576100f3565b80632afcf480146100f75780632d2c5565146101135780633a03171c14610131575b5f80fd5b610111600480360381019061010c9190610d0e565b6102a1565b005b61011b610474565b6040516101289190610d78565b60405180910390f35b610139610498565b6040516101469190610da0565b60405180910390f35b6101576104bc565b005b610173600480360381019061016e9190610de3565b610812565b6040516101809190610da0565b60405180910390f35b610191610827565b60405161019e9190610d78565b60405180910390f35b6101af61084b565b005b6101b9610a08565b6040516101c69190610e69565b60405180910390f35b6101d7610a2c565b6040516101e49190610e69565b60405180910390f35b6101f5610a50565b6040516102029190610da0565b60405180910390f35b610213610ad9565b6040516102209190610da0565b60405180910390f35b610231610afd565b60405161023e9190610da0565b60405180910390f35b61024f610b21565b60405161025c9190610da0565b60405180910390f35b61026d610b26565b60405161027a9190610e9c565b60405180910390f35b61028b610b38565b6040516102989190610da0565b60405180910390f35b7f0000000000000000000000000000000000000000000000000000000000000000815f546102cf9190610ee2565b1115610307576040517fc233f21b00000000000000000000000000000000000000000000000000000000815260040160405180910390fd5b5f610310610a50565b90505f81670de0b6b3a7640000846103289190610f15565b6103329190610f83565b90505f810361036d576040517f6503f70f00000000000000000000000000000000000000000000000000000000815260040160405180910390fd5b6103ba3330857f000000000000000000000000000000000000000000000000000000000000000073ffffffffffffffffffffffffffffffffffffffff16610b5c909392919063ffffffff16565b61040533827f000000000000000000000000000000000000000000000000000000000000000073ffffffffffffffffffffffffffffffffffffffff16610bb19092919063ffffffff16565b8260025f3373ffffffffffffffffffffffffffffffffffffffff1673ffffffffffffffffffffffffffffffffffffffff1681526020019081526020015f205f8282546104519190610ee2565b92505081905550825f808282546104689190610ee2565b92505081905550505050565b7f000000000000000000000000000000000000000000000000000000000000000081565b7f000000000000000000000000000000000000000000000000000000000000000081565b7f000000000000000000000000000000000000000000000000000000000000000073ffffffffffffffffffffffffffffffffffffffff163373ffffffffffffffffffffffffffffffffffffffff1614610541576040517fe7922ea900000000000000000000000000000000000000000000000000000000815260040160405180910390fd5b7f00000000000000000000000000000000000000000000000000000000000000005f54101561059c576040517fd305bde400000000000000000000000000000000000000000000000000000000815260040160405180910390fd5b60015f9054906101000a900460ff16156105e2576040517f5e97563700000000000000000000000000000000000000000000000000000000815260040160405180910390fd5b6001805f6101000a81548160ff0219169083151502179055505f606460035f5461060c9190610f15565b6106169190610f83565b90505f815f546106269190610fb3565b90506106937f0000000000000000000000000000000000000000000000000000000000000000837f000000000000000000000000000000000000000000000000000000000000000073ffffffffffffffffffffffffffffffffffffffff16610bb19092919063ffffffff16565b6106fe7f0000000000000000000000000000000000000000000000000000000000000000827f000000000000000000000000000000000000000000000000000000000000000073ffffffffffffffffffffffffffffffffffffffff16610bb19092919063ffffffff16565b5f7f000000000000000000000000000000000000000000000000000000000000000073ffffffffffffffffffffffffffffffffffffffff166370a08231306040518263ffffffff1660e01b81526004016107589190610d78565b602060405180830381865afa158015610773573d5f803e3d5ffd5b505050506040513d601f19601f820116820180604052508101906107979190610ffa565b90505f81111561080d5761080c7f0000000000000000000000000000000000000000000000000000000000000000827f000000000000000000000000000000000000000000000000000000000000000073ffffffffffffffffffffffffffffffffffffffff16610bb19092919063ffffffff16565b5b505050565b6002602052805f5260405f205f915090505481565b7f000000000000000000000000000000000000000000000000000000000000000081565b7f000000000000000000000000000000000000000000000000000000000000000042116108a4576040517fab1106d400000000000000000000000000000000000000000000000000000000815260040160405180910390fd5b7f00000000000000000000000000000000000000000000000000000000000000005f54106108fe576040517f91a7b82500000000000000000000000000000000000000000000000000000000815260040160405180910390fd5b5f60025f3373ffffffffffffffffffffffffffffffffffffffff1673ffffffffffffffffffffffffffffffffffffffff1681526020019081526020015f205490505f8103610978576040517f95d2c93b00000000000000000000000000000000000000000000000000000000815260040160405180910390fd5b5f60025f3373ffffffffffffffffffffffffffffffffffffffff1673ffffffffffffffffffffffffffffffffffffffff1681526020019081526020015f2081905550610a0533827f000000000000000000000000000000000000000000000000000000000000000073ffffffffffffffffffffffffffffffffffffffff16610bb19092919063ffffffff16565b50565b7f000000000000000000000000000000000000000000000000000000000000000081565b7f000000000000000000000000000000000000000000000000000000000000000081565b5f7f00000000000000000000000000000000000000000000000000000000000000005f547f0000000000000000000000000000000000000000000000000000000000000000610a9f9190610f15565b610aa99190610f83565b7f0000000000000000000000000000000000000000000000000000000000000000610ad49190610ee2565b905090565b7f000000000000000000000000000000000000000000000000000000000000000081565b7f000000000000000000000000000000000000000000000000000000000000000081565b5f5481565b60015f9054906101000a900460ff1681565b7f000000000000000000000000000000000000000000000000000000000000000081565b610b6a848484846001610c04565b610bab57836040517f5274afe7000000000000000000000000000000000000000000000000000000008152600401610ba29190610d78565b60405180910390fd5b50505050565b610bbe8383836001610c75565b610bff57826040517f5274afe7000000000000000000000000000000000000000000000000000000008152600401610bf69190610d78565b60405180910390fd5b505050565b5f806323b872dd60e01b9050604051815f525f1960601c87166004525f1960601c86166024528460445260205f60645f808c5af1925060015f51148316610c62578383151615610c56573d5f823e3d81fd5b5f883b113d1516831692505b806040525f606052505095945050505050565b5f8063a9059cbb60e01b9050604051815f525f1960601c86166004528460245260205f60445f808b5af1925060015f51148316610cc9578383151615610cbd573d5f823e3d81fd5b5f873b113d1516831692505b806040525050949350505050565b5f80fd5b5f819050919050565b610ced81610cdb565b8114610cf7575f80fd5b50565b5f81359050610d0881610ce4565b92915050565b5f60208284031215610d2357610d22610cd7565b5b5f610d3084828501610cfa565b91505092915050565b5f73ffffffffffffffffffffffffffffffffffffffff82169050919050565b5f610d6282610d39565b9050919050565b610d7281610d58565b82525050565b5f602082019050610d8b5f830184610d69565b92915050565b610d9a81610cdb565b82525050565b5f602082019050610db35f830184610d91565b92915050565b610dc281610d58565b8114610dcc575f80fd5b50565b5f81359050610ddd81610db9565b92915050565b5f60208284031215610df857610df7610cd7565b5b5f610e0584828501610dcf565b91505092915050565b5f819050919050565b5f610e31610e2c610e2784610d39565b610e0e565b610d39565b9050919050565b5f610e4282610e17565b9050919050565b5f610e5382610e38565b9050919050565b610e6381610e49565b82525050565b5f602082019050610e7c5f830184610e5a565b92915050565b5f8115159050919050565b610e9681610e82565b82525050565b5f602082019050610eaf5f830184610e8d565b92915050565b7f4e487b71000000000000000000000000000000000000000000000000000000005f52601160045260245ffd5b5f610eec82610cdb565b9150610ef783610cdb565b9250828201905080821115610f0f57610f0e610eb5565b5b92915050565b5f610f1f82610cdb565b9150610f2a83610cdb565b9250828202610f3881610cdb565b91508282048414831517610f4f57610f4e610eb5565b5b5092915050565b7f4e487b71000000000000000000000000000000000000000000000000000000005f52601260045260245ffd5b5f610f8d82610cdb565b9150610f9883610cdb565b925082610fa857610fa7610f56565b5b828204905092915050565b5f610fbd82610cdb565b9150610fc883610cdb565b9250828203905081811115610fe057610fdf610eb5565b5b92915050565b5f81519050610ff481610ce4565b92915050565b5f6020828403121561100f5761100e610cd7565b5b5f61101c84828501610fe6565b9150509291505056fea2646970667358221220cdacde9c0cd1d9106adef8b490549f0a37555c10bba99b1ff0ba0f7cc7512f2464736f6c63430008180033","linkReferences":{}},"methodIdentifiers":{"BASE_PRICE()":"f86325ed","DEADLINE()":"a082c86e","DPF()":"8d88f040","HARD_CAP()":"3a03171c","ISSUER()":"4339b421","SOFT_CAP()":"b652dc2f","TREASURY()":"2d2c5565","USDC()":"89a30271","contributions(address)":"42e94c90","currentPrice()":"9d1b464a","invest(uint256)":"2afcf480","refund()":"590e1ae3","totalRaised()":"c5c4744c","withdraw()":"3ccfd60b","withdrawn()":"c80ec522"},"id":36}